:03000000021000EB
:0300CC0002101C03
:10100000120070758991758D00758B002087FDD257
:101010008E3087FD2087FD12101C80F0C28EAD8DB2
:10102000AE8B758D00758B007480120050ED120030
:0C103000A8120096EE1200A812009622F2
:100050001185F5A0C280C281D282120096C282228E
:100060001185F5A0D280C281D282120096C282226E
:100070007438120050740E1200507406120050743E
:10008000011200502275A0FFC280D281C282D282AA
:1000900020A7F9C2822279FF7AFF00D9FDDAFB227C
:1000A0007D32120096DDFB221200B4120060E5F0F2
:1000B00012006022FF540F11C2F5F0EFC4540F116B
:0700C000C22290040093220C
:10040000303132333435363738394142434445464A
:00000001FF
