:03000000020EE607
:0C0EE600787FE4F6D8FD75815F02097684
:100E8E00120DE17FD0120F0E7F07120F0EE4FF122C
:050E9E000F0E020E40E2
:060F0E00120E21020EA3E9
:030F1900120C9F18
:010F1C0022B2
:100D51008F488D498B4A120DE17FD0120F0EE4FFAF
:100D6100120F0EAF4A120F0EAF49120F0EAF4812FB
:050D71000F0E020E4010
:100D00008F488D498B4A120DE17FD0120F0E7F0361
:100D1000120F0EAF48120F0EAF49120F0EAF4A124C
:0A0D20000F0EAF4B120F0E020E4033
:100B83008B488A49894A120DE17FD0120F0EE4FF88
:100B9300120F0E120E40120DE17FD1120F0E120F23
:100BA30019AB4EAA4FA950EF12090F120EFE120FE6
:100BB30019AB4BAA4CA94DEF12090F120EFE120FDF
:100BC30019AB48AA49A94AEF12090F120F06020EE0
:010BD30040E1
:100B22008B488A49894A120DE17FD0120F0E7F034A
:100B3200120F0E120E40120DE17FD1120F0E120F84
:100B420019AB48AA49A94AEF12090F120EFE120F59
:100B520019AB4BAA4CA94DEF12090F120EFE120F40
:100B620019AB4EAA4FA950EF12090F120EFE120F27
:100B720019AB51AA52A953EF12090F120F06020E16
:010B82004032
:100EA3007F017E00120EF2D2827F017E00120EF2CB
:030EB300C28222D6
:100DE100C282D2817F017E00120EF2D2827F017E09
:100DF10000120EF2C2817F017E00120EF2C2822227
:100E4000C2827F017E00120EF2C2817F017E0012FB
:0E0E50000EF2D2827F017E00120EF2D28122BB
:020E21008F54EC
:100E2300E4F555E554339281120EA3E55425E0F51C
:0C0E3300540555E555C3940840E9D281F0
:010E3F002290
:100C9F00E4F555D281F5547F017E00120EF2D28217
:100CAF007F017E00120EF2E55525E0F555A281E495
:100CBF00334255C2820554E554C3940840D9AF5509
:010CCF002202
:080EFE00C281120EA3D2812271
:080F0600D281120EA3D2822257
:0C0EF200EF4E6007EF1F70F81E80F52225
:100E7700AD07AC06ED4C600E7F507E00120EF2ED12
:070E87001D70F11C80EE223A
:100EC700AB07EB600A7FE87E03120E771B80F322E5
:100C6400E4F580F5A07F0FFE120E777F30120DBFE2
:100C74007F047E00120E777F30120DBF7F017E004D
:100C8400120E777F30120DBF7F017E00120E777F28
:0B0C940002120DBF7F017E00020E77F0
:100CD0007F38120DBF7F0A7E00120E777F0E120D35
:100CE000BF7F0A7E00120E777F06120DBF7F0A7E3D
:100CF00000120E777F01120DBF7F0A7E00020E7771
:100DBF008F487F0A7E00120E778548A0C280C281BD
:100DCF00D2827F0A7E00120E77C2827F0A7E0002D5
:020DDF000E778D
:100EB6008E5C8F5DE55CFF120E5EAF5DE55D020E3A
:010EC6005ECD
:100E5E008F48E548C4540FFF120ED7120D2FE548E8
:090E6E00540FFF120ED7020D2FE4
:050D2A00540F2430FF0E
:100D2F008F4B7F017E00120E77854BA0D280C28140
:100D3F00D2827F017E00120E77C2827F017E000277
:020D4F000E771D
:0F0ED700EFD39409EF40042437FF222430FF2289
:100D9B008E5E8F5F7C007D0A120921EF2430FF12DB
:100DAB000D2FAE5EAF5F7C007D0A120921ED243062
:040DBB00FF020D2FF7
:100D76008B488A49894AAB48AA49A94A1208F660AB
:100D860013054AE54A7002054914F91208F6FF12DE
:050D96000D2F80E22298
:100E0100C3EF648094825017EFC4333354C04480DD
:0F0E1100FFC3ED648094905003ED2FFF120DBFCF
:010E200022AF
:050F14007F01020DBF8A
:100BD4008F568D578B58E5567804A2E713D8FB122D
:100BE4000D2AE556120D2A7F2F120D2FE557780492
:100BF400A2E713D8FB120D2AE557120D2A7F2F12F4
:100C04000D2FE5587804A2E713D8FB120D2AE558F6
:080C1400540F2430FF020D2FE4
:100C1C008F598D5A8B5BE5597804A2E713D8FB12D8
:100C2C000D2AE559120D2A7F3A120D2FE55A780438
:100C3C00A2E713D8FB120D2AE55A120D2A7F3A129D
:100C4C000D2FE55B7804A2E713D8FB120D2AE55BA8
:080C5C00540F2430FF020D2F9C
:100A94004D4F4E00545545005745440054485500A9
:100AA400465249005341540053554E004A414E00AA
:100AB400464542004D415200415052004A554E00B5
:100AC4004A554C0041554700534550004F4354008C
:100AD4004E4F560044454300200020323000202071
:100AE4002020003A00FF0A94FF0A98FF0A9CFF0A9C
:100AF400A0FF0AA4FF0AA8FF0AACFF0AB0FF0AB4C9
:100B0400FF0AB8FF0ABCFF0AC0FF0AC4FF0AC8FFF5
:0E0B14000ACCFF0AD0FF0AD4FF0AD800000066
:1009760078087C007D007BFF7A0A79E97E007F1586
:100986001208D0781D7C007D007BFF7A0A79FE7EF6
:10099600007F241208D0120C64120CD0120E8EE4C2
:1009A600FB7D597F11120D51754B147B087D267FF7
:1009B60003120D00754B00754C00754D42754E00C7
:1009C600754F007550417B007A007943120B837591
:1009D6004B00754C00754D45754E00754F007550B2
:1009E600467551007552007553477B007A0079446D
:1009F600120B227BFF7A0A79DC120D76E54475F03C
:100A060003A42408F8860308E6FA08E6F9120D7628
:100A16007BFF7A0A79DC120D76AF45120E5E7BFFFC
:100A26007A0A79DC120D76E54675F003A4241DF8E2
:100A3600860308E6FA08E6F9120D767BFF7A0A794C
:100A4600DE120D76AF47120E5EE4FD7F01120E0137
:100A56007BFF7A0A79E2120D76AF43120E5E7BFFB8
:100A66007A0A79E7120D76AF42120E5E7BFF7A0A9A
:100A760079E7120D76AF41120E5E7BFF7A0A79E2B4
:0E0A8600120D767F01120EC7120F140209BA6C
:10080000E709F608DFFA8046E709F208DFFA803EDA
:1008100088828C83E709F0A3DFFA8032E309F608C7
:10082000DFFA8078E309F208DFFA807088828C832F
:10083000E309F0A3DFFA806489828A83E0A3F608E3
:10084000DFFA805889828A83E0A3F208DFFA804CBD
:1008500080D280FA80C680D4806980F28033801094
:1008600080A680EA809A80A880DA80E280CA8033FD
:1008700089828A83ECFAE493A3C8C582C8CCC58375
:10088000CCF0A3C8C582C8CCC583CCDFE9DEE78045
:100890000D89828A83E493A3F608DFF9ECFAA9F0C4
:1008A000EDFB2289828A83ECFAE0A3C8C582C8CC1A
:1008B000C583CCF0A3C8C582C8CCC583CCDFEADE33
:1008C000E880DB89828A83E493A3F208DFF980CC95
:1008D00088F0EF60010E4E60C388F0ED2402B4048E
:1008E0000050B9F582EB2402B4040050AF23234535
:0608F00082239008507302
:1008F600BB010689828A83E0225002E722BBFE0200
:09090600E32289828A83E4932232
:10090F00BB010689828A83F0225002F722BBFE01C7
:02091F00F322C1
:10092100BC000BBE0029EF8DF084FFADF022E4CCBA
:10093100F875F008EF2FFFEE33FEEC33FCEE9DEC83
:10094100984005FCEE9DFE0FD5F0E9E4CEFD22EDC9
:10095100F8F5F0EE8420D21CFEADF075F008EF2F13
:10096100FFED33FD4007985006D5F0F222C398FD04
:050971000FD5F0EA22A1
:00000001FF
